{
  "contractName": "redcriptopayBNB",
  "abi": [
    {
      "inputs": [],
      "stateMutability": "nonpayable",
      "type": "constructor"
    },
    {
      "anonymous": false,
      "inputs": [
        {
          "indexed": true,
          "internalType": "address",
          "name": "Sender",
          "type": "address"
        },
        {
          "indexed": true,
          "internalType": "address",
          "name": "Receiver",
          "type": "address"
        },
        {
          "indexed": true,
          "internalType": "uint256",
          "name": "id",
          "type": "uint256"
        },
        {
          "indexed": false,
          "internalType": "uint256",
          "name": "value",
          "type": "uint256"
        },
        {
          "indexed": false,
          "internalType": "enum redcriptopayBNB.TransactionStatus",
          "name": "status",
          "type": "uint8"
        }
      ],
      "name": "DepositCompleted",
      "type": "event"
    },
    {
      "anonymous": false,
      "inputs": [
        {
          "indexed": true,
          "internalType": "address",
          "name": "Sender",
          "type": "address"
        },
        {
          "indexed": true,
          "internalType": "address",
          "name": "Receiver",
          "type": "address"
        },
        {
          "indexed": true,
          "internalType": "uint256",
          "name": "id",
          "type": "uint256"
        },
        {
          "indexed": false,
          "internalType": "uint256",
          "name": "amount",
          "type": "uint256"
        },
        {
          "indexed": false,
          "internalType": "uint256",
          "name": "value",
          "type": "uint256"
        }
      ],
      "name": "DepositCreation",
      "type": "event"
    },
    {
      "anonymous": false,
      "inputs": [
        {
          "indexed": true,
          "internalType": "address",
          "name": "Sender",
          "type": "address"
        },
        {
          "indexed": true,
          "internalType": "address",
          "name": "Receiver",
          "type": "address"
        },
        {
          "indexed": true,
          "internalType": "uint256",
          "name": "id",
          "type": "uint256"
        },
        {
          "indexed": false,
          "internalType": "uint256",
          "name": "value",
          "type": "uint256"
        }
      ],
      "name": "Dispute",
      "type": "event"
    },
    {
      "anonymous": false,
      "inputs": [
        {
          "indexed": true,
          "internalType": "address",
          "name": "previousOwner",
          "type": "address"
        },
        {
          "indexed": true,
          "internalType": "address",
          "name": "newOwner",
          "type": "address"
        }
      ],
      "name": "OwnershipTransferred",
      "type": "event"
    },
    {
      "inputs": [],
      "name": "Judge",
      "outputs": [
        {
          "internalType": "address",
          "name": "",
          "type": "address"
        }
      ],
      "stateMutability": "view",
      "type": "function",
      "constant": true
    },
    {
      "inputs": [
        {
          "internalType": "address",
          "name": "",
          "type": "address"
        },
        {
          "internalType": "uint256",
          "name": "",
          "type": "uint256"
        }
      ],
      "name": "ReceiverLedger",
      "outputs": [
        {
          "internalType": "uint256",
          "name": "",
          "type": "uint256"
        }
      ],
      "stateMutability": "view",
      "type": "function",
      "constant": true
    },
    {
      "inputs": [
        {
          "internalType": "address",
          "name": "",
          "type": "address"
        },
        {
          "internalType": "uint256",
          "name": "",
          "type": "uint256"
        }
      ],
      "name": "SenderLedger",
      "outputs": [
        {
          "internalType": "uint256",
          "name": "",
          "type": "uint256"
        }
      ],
      "stateMutability": "view",
      "type": "function",
      "constant": true
    },
    {
      "inputs": [
        {
          "internalType": "uint256",
          "name": "",
          "type": "uint256"
        }
      ],
      "name": "TransactionLedger",
      "outputs": [
        {
          "internalType": "address",
          "name": "Sender",
          "type": "address"
        },
        {
          "internalType": "address",
          "name": "Receiver",
          "type": "address"
        },
        {
          "internalType": "uint256",
          "name": "amount",
          "type": "uint256"
        },
        {
          "internalType": "uint256",
          "name": "judgeFee",
          "type": "uint256"
        },
        {
          "internalType": "uint256",
          "name": "ownerFee",
          "type": "uint256"
        },
        {
          "internalType": "uint256",
          "name": "value",
          "type": "uint256"
        },
        {
          "internalType": "enum redcriptopayBNB.TransactionStatus",
          "name": "status",
          "type": "uint8"
        }
      ],
      "stateMutability": "view",
      "type": "function",
      "constant": true
    },
    {
      "inputs": [],
      "name": "owner",
      "outputs": [
        {
          "internalType": "address",
          "name": "",
          "type": "address"
        }
      ],
      "stateMutability": "view",
      "type": "function",
      "constant": true
    },
    {
      "inputs": [
        {
          "internalType": "address",
          "name": "newOwner",
          "type": "address"
        }
      ],
      "name": "transferOwnership",
      "outputs": [],
      "stateMutability": "nonpayable",
      "type": "function"
    },
    {
      "inputs": [
        {
          "internalType": "address",
          "name": "_judge",
          "type": "address"
        }
      ],
      "name": "setJudge",
      "outputs": [],
      "stateMutability": "nonpayable",
      "type": "function"
    },
    {
      "inputs": [
        {
          "internalType": "address",
          "name": "_receiver",
          "type": "address"
        }
      ],
      "name": "createDeposit",
      "outputs": [],
      "stateMutability": "payable",
      "type": "function",
      "payable": true
    },
    {
      "inputs": [
        {
          "internalType": "address",
          "name": "user",
          "type": "address"
        }
      ],
      "name": "getSenderLedgerLength",
      "outputs": [
        {
          "internalType": "uint256",
          "name": "",
          "type": "uint256"
        }
      ],
      "stateMutability": "view",
      "type": "function",
      "constant": true
    },
    {
      "inputs": [
        {
          "internalType": "address",
          "name": "user",
          "type": "address"
        }
      ],
      "name": "getReceiverLedgerLength",
      "outputs": [
        {
          "internalType": "uint256",
          "name": "",
          "type": "uint256"
        }
      ],
      "stateMutability": "view",
      "type": "function",
      "constant": true
    },
    {
      "inputs": [
        {
          "internalType": "uint256",
          "name": "id",
          "type": "uint256"
        }
      ],
      "name": "releaseFunds",
      "outputs": [],
      "stateMutability": "nonpayable",
      "type": "function"
    },
    {
      "inputs": [
        {
          "internalType": "uint256",
          "name": "id",
          "type": "uint256"
        }
      ],
      "name": "refundSender",
      "outputs": [],
      "stateMutability": "nonpayable",
      "type": "function"
    },
    {
      "inputs": [
        {
          "internalType": "uint256",
          "name": "id",
          "type": "uint256"
        }
      ],
      "name": "raiseDispute",
      "outputs": [],
      "stateMutability": "nonpayable",
      "type": "function"
    }
  ],
  "bytecode": "0x608060405234801561001057600080fd5b5061003361002564010000000061004e810204565b640100000000610052810204565b6001805560028054600160a060020a031916331790556100a2565b3390565b60008054600160a060020a03838116600160a060020a0319831681178455604051919092169283917f8be0079c531659141344cd1fd0a4f28419497f9722a3daafe3b4186f6b6457e09190a35050565b61123f806100b16000396000f3fe6080604052600436106100df576000357c0100000000000000000000000000000000000000000000000000000000900480636ea17da81161009c578063a5c1674e11610076578063a5c1674e1461024d578063b157c5cd1461026d578063cf85fb871461028d578063f2fde38b146102c357600080fd5b80636ea17da8146101d557806385893cb8146101f55780638da5cb5b1461022d57600080fd5b80630f8dce23146100e45780631bb9772e1461012d5780633e87f9a1146101605780634d68282f14610180578063561fe29c146101a25780636797763a146101b5575b600080fd5b3480156100f057600080fd5b5061011a6100ff366004611052565b600160a060020a031660009081526004602052604090205490565b6040519081526020015b60405180910390f35b34801561013957600080fd5b5061014d61014836600461109c565b6102e3565b60405161012497969594939291906110d9565b34801561016c57600080fd5b5061011a61017b366004611073565b610342565b34801561018c57600080fd5b506101a061019b36600461109c565b610373565b005b6101a06101b0366004611052565b610662565b3480156101c157600080fd5b5061011a6101d0366004611073565b610a4a565b3480156101e157600080fd5b506101a06101f036600461109c565b610a66565b34801561020157600080fd5b5060025461021590600160a060020a031681565b604051600160a060020a039091168152602001610124565b34801561023957600080fd5b5060005461021590600160a060020a031681565b34801561025957600080fd5b506101a061026836600461109c565b610c6d565b34801561027957600080fd5b506101a0610288366004611052565b610e65565b34801561029957600080fd5b5061011a6102a8366004611052565b600160a060020a031660009081526005602052604090205490565b3480156102cf57600080fd5b506101a06102de366004611052565b610ef1565b600381815481106102f357600080fd5b60009182526020909120600790910201805460018201546002830154600384015460048501546005860154600690960154600160a060020a039586169750949093169491939092919060ff1687565b6004602052816000526040600020818154811061035e57600080fd5b90600052602060002001600091509150505481565b600260015414156103ce5760405160e560020a62461bcd02815260206004820152601f60248201527f5265656e7472616e637947756172643a207265656e7472616e742063616c6c0060448201526064015b60405180910390fd5b60026001553233146103f55760405160e560020a62461bcd0281526004016103c590611126565b60006003828154811061041b5760e060020a634e487b7102600052603260045260246000fd5b600091825260209091206007909102018054909150600160a060020a03163314806104505750600254600160a060020a031633145b6104c55760405160e560020a62461bcd02815260206004820152602c60248201527f6f6e6c792073656e646572206f72206a756467652063616e2063616c6c20746860448201527f69732066756e6374696f6e2e000000000000000000000000000000000000000060648201526084016103c5565b6000600682015460ff1660038111156104f15760e060020a634e487b7102600052602160045260246000fd5b148061052657506003600682015460ff1660038111156105245760e060020a634e487b7102600052602160045260246000fd5b145b61052f57600080fd5b60068101805460ff191660019081179091558101546005820154604051600160a060020a03909216916108fc82150291906000818181858888f1935050505015801561057f573d6000803e3d6000fd5b506002546003820154604051600160a060020a039092169181156108fc0291906000818181858888f193505050501580156105be573d6000803e3d6000fd5b50600080546004830154604051600160a060020a039092169281156108fc029290818181858888f193505050501580156105fc573d6000803e3d6000fd5b5060018101548154600583015460068401546040518694600160a060020a039081169416927f8e90403b32ab3436335f31e2ec71e0f48d989293aae5fff228d58dee01379be5926106529260ff90911690611183565b60405180910390a4505060018055565b3233146106845760405160e560020a62461bcd0281526004016103c590611126565b600034116106d75760405160e560020a62461bcd02815260206004820152601460248201527f616d6f756e742068617320746f206265203e203000000000000000000000000060448201526064016103c5565b33600160a060020a03821614156107595760405160e560020a62461bcd02815260206004820152602960248201527f20726563656976657220616e642073656e6465722063616e206e6f742062652060448201527f7468652073616d652e000000000000000000000000000000000000000000000060648201526084016103c5565b60006103e861076934600a6111ba565b6107739190611197565b905060006101f461078534600a6111ba565b61078f9190611197565b905060008261079e83346111d9565b6107a891906111d9565b905060006040518060e0016040528033600160a060020a0316815260200186600160a060020a031681526020013481526020018581526020018481526020018585346107f491906111d9565b6107fe91906111d9565b81526020016000905260038054600181810183556000839052835160079092027fc2575a0e9e593c00f959f8c92f12db2869c3395a3b0502d05e2516446f71f85b81018054600160a060020a0394851673ffffffffffffffffffffffffffffffffffffffff1991821617825560208701517fc2575a0e9e593c00f959f8c92f12db2869c3395a3b0502d05e2516446f71f85c840180549190961691161790935560408501517fc2575a0e9e593c00f959f8c92f12db2869c3395a3b0502d05e2516446f71f85d82015560608501517fc2575a0e9e593c00f959f8c92f12db2869c3395a3b0502d05e2516446f71f85e82015560808501517fc2575a0e9e593c00f959f8c92f12db2869c3395a3b0502d05e2516446f71f85f82015560a08501517fc2575a0e9e593c00f959f8c92f12db2869c3395a3b0502d05e2516446f71f86082015560c08501517fc2575a0e9e593c00f959f8c92f12db2869c3395a3b0502d05e2516446f71f8619091018054959650869593949193909260ff199091169184908111156109a15760e060020a634e487b7102600052602160045260246000fd5b021790555050600354600091506109ba906001906111d9565b33600081815260046020908152604080832080546001808201835591855283852001869055600160a060020a038c16808552600584528285208054928301815585529383902001859055805134815291820188905293945084939192917f99635347cae2f479990ea04ce5569e366ab4b6bc98c825e9cfa51702cf702296910160405180910390a4505050505050565b6005602052816000526040600020818154811061035e57600080fd5b60026001541415610abc5760405160e560020a62461bcd02815260206004820152601f60248201527f5265656e7472616e637947756172643a207265656e7472616e742063616c6c0060448201526064016103c5565b6002600155323314610ae35760405160e560020a62461bcd0281526004016103c590611126565b600060038281548110610b095760e060020a634e487b7102600052603260045260246000fd5b60009182526020909120600160079092020190810154909150600160a060020a0316331480610b425750600254600160a060020a031633145b610bb75760405160e560020a62461bcd02815260206004820152602e60248201527f6f6e6c79207265636569766572206f72206a756467652063616e2063616c6c2060448201527f746869732066756e6374696f6e2e00000000000000000000000000000000000060648201526084016103c5565b6000600682015460ff166003811115610be35760e060020a634e487b7102600052602160045260246000fd5b1480610c1857506003600682015460ff166003811115610c165760e060020a634e487b7102600052602160045260246000fd5b145b610c2157600080fd5b60068101805460ff1916600217905580546005820154604051600160a060020a03909216916108fc82150291906000818181858888f1935050505015801561057f573d6000803e3d6000fd5b323314610c8f5760405160e560020a62461bcd0281526004016103c590611126565b600060038281548110610cb55760e060020a634e487b7102600052603260045260246000fd5b600091825260209091206007909102018054909150600160a060020a0316331480610cec57506001810154600160a060020a031633145b610d615760405160e560020a62461bcd02815260206004820152602f60248201527f4f6e6c792073656e646572206f722052656365697665722063616e2063616c6c60448201527f20746869732066756e6374696f6e2e000000000000000000000000000000000060648201526084016103c5565b6000600682015460ff166003811115610d8d5760e060020a634e487b7102600052602160045260246000fd5b14610e035760405160e560020a62461bcd02815260206004820152603a60248201527f6f6e6c792046756e647352656365697665642073746174757320697320616c6c60448201527f6f77656420746f2063616c6c20746869732066756e6374696f6e00000000000060648201526084016103c5565b60068101805460ff191660031790556001810154815460058301546040519081528492600160a060020a039081169216907f8c5b6106cd47c6ecea8f3f6f8c72f7e3deb0cf2d4d85a12d82b5409c5ac725b29060200160405180910390a45050565b600054600160a060020a03163314610ec25760405160e560020a62461bcd02815260206004820181905260248201527f4f776e61626c653a2063616c6c6572206973206e6f7420746865206f776e657260448201526064016103c5565b6002805473ffffffffffffffffffffffffffffffffffffffff1916600160a060020a0392909216919091179055565b600054600160a060020a03163314610f4e5760405160e560020a62461bcd02815260206004820181905260248201527f4f776e61626c653a2063616c6c6572206973206e6f7420746865206f776e657260448201526064016103c5565b600160a060020a038116610fcd5760405160e560020a62461bcd02815260206004820152602660248201527f4f776e61626c653a206e6577206f776e657220697320746865207a65726f206160448201527f646472657373000000000000000000000000000000000000000000000000000060648201526084016103c5565b610fd681610fd9565b50565b60008054600160a060020a0383811673ffffffffffffffffffffffffffffffffffffffff19831681178455604051919092169283917f8be0079c531659141344cd1fd0a4f28419497f9722a3daafe3b4186f6b6457e09190a35050565b8035600160a060020a038116811461104d57600080fd5b919050565b600060208284031215611063578081fd5b61106c82611036565b9392505050565b60008060408385031215611085578081fd5b61108e83611036565b946020939093013593505050565b6000602082840312156110ad578081fd5b5035919050565b600481106110d55760e060020a634e487b7102600052602160045260246000fd5b9052565b600160a060020a0388811682528716602082015260408101869052606081018590526080810184905260a0810183905260e0810161111a60c08301846110b4565b98975050505050505050565b60208082526024908201527f436f6e7472616374732063616e206e6f742063616c6c20746869732066756e6360408201527f74696f6e00000000000000000000000000000000000000000000000000000000606082015260800190565b8281526040810161106c60208301846110b4565b6000826111b55760e060020a634e487b710281526012600452602481fd5b500490565b60008160001904831182151516156111d4576111d46111f0565b500290565b6000828210156111eb576111eb6111f0565b500390565b60e060020a634e487b7102600052601160045260246000fdfea2646970667358221220e5a514c36a6916f3a4cc1e51f0a3943cd667fb0ae4238dcad73dae79a3b2b74864736f6c63430008040033",
  "immutableReferences": {},
  "source": "pragma solidity ^0.8.4;\n\n//redcriptopay\n\nimport \"./Ownable.sol\";\nimport \"@openzeppelin/contracts/security/ReentrancyGuard.sol\";\n\ncontract redcriptopayBNB is Ownable, ReentrancyGuard {\n\n    enum TransactionStatus { FundsReceived, FundsReleased, Refunded, AwaitingResolution }\n\n    event DepositCreation(address indexed Sender, address indexed Receiver, uint indexed id, uint amount, uint value);\n    event DepositCompleted(address indexed Sender, address indexed Receiver, uint indexed id, uint value, TransactionStatus status);\n    event Dispute(address indexed Sender, address indexed Receiver, uint indexed id, uint value);\n    \n    address public Judge;\n    \n    constructor () {\n     Judge = msg.sender;   \n    }\n    \n    struct Transaction{\n        address Sender;\n        address Receiver;\n        uint amount;\n        uint judgeFee;\n        uint ownerFee;\n        uint value;\n        TransactionStatus status;\n        \n    }\n    \n    Transaction[] public TransactionLedger;\n\n    mapping(address => uint[]) public SenderLedger;\n    mapping(address => uint[]) public ReceiverLedger;\n    \n    modifier onlyEOA() {\n    require(tx.origin == msg.sender, \"Contracts can not call this function\");\n    _;\n    }\n    \n    function setJudge(address _judge) external onlyOwner {\n        Judge = _judge;\n    }\n    \n    function createDeposit(address _receiver) payable external onlyEOA {\n        require(msg.value > 0, 'amount has to be > 0');\n        require(msg.sender != _receiver, \" receiver and sender can not be the same.\");\n        \n        uint judgeFee = (msg.value * 10) / 1000;\n        uint ownerFee = (msg.value * 10) / 500;\n        uint value = msg.value - ownerFee - judgeFee;\n        \n        Transaction memory NewTransaction = Transaction({\n            Sender: msg.sender, \n            Receiver: _receiver,\n            amount: msg.value,\n            judgeFee: judgeFee,\n            ownerFee: ownerFee,\n            value: msg.value - ownerFee - judgeFee,\n            status: TransactionStatus.FundsReceived\n        });\n        \n        TransactionLedger.push(NewTransaction);\n        uint id = TransactionLedger.length -1;\n        SenderLedger[msg.sender].push(id);\n        ReceiverLedger[_receiver].push(id);\n        \n         emit DepositCreation(msg.sender, _receiver, id, msg.value, value);\n    }\n\n     function getSenderLedgerLength(address user) public view returns (uint){\n        return (SenderLedger[user].length);\n    }\n    \n    function getReceiverLedgerLength(address user) public view returns (uint){\n        return (ReceiverLedger[user].length);\n    }\n    \n    function releaseFunds(uint id) external nonReentrant onlyEOA {\n        Transaction storage t = TransactionLedger[id];\n        require(t.Sender == msg.sender || Judge == msg.sender, \"only sender or judge can call this function.\");\n        require(t.status == TransactionStatus.FundsReceived || t.status == TransactionStatus.AwaitingResolution);\n        \n        t.status = TransactionStatus.FundsReleased;\n       \n        payable(t.Receiver).transfer(t.value);\n        payable(Judge).transfer(t.judgeFee);\n        payable(owner).transfer(t.ownerFee);\n        \n        emit DepositCompleted(t.Sender, t.Receiver, id, t.value, t.status);\n    }\n\n    function refundSender(uint id) external nonReentrant onlyEOA{\n        Transaction storage t = TransactionLedger[id];\n        require(t.Receiver == msg.sender || Judge == msg.sender, \"only receiver or judge can call this function.\");\n        require(t.status == TransactionStatus.FundsReceived || t.status == TransactionStatus.AwaitingResolution);\n\n        t.status = TransactionStatus.Refunded;\n        \n        payable(t.Sender).transfer(t.value);\n        payable(Judge).transfer(t.judgeFee);\n        payable(owner).transfer(t.ownerFee);\n        \n        emit DepositCompleted(t.Sender, t.Receiver, id, t.value, t.status);\n    }\n\n    function raiseDispute(uint id) external onlyEOA {\n        Transaction storage t = TransactionLedger[id];\n        require(t.Sender == msg.sender || t.Receiver == msg.sender, \"Only sender or Receiver can call this function.\");\n        require(t.status == TransactionStatus.FundsReceived, \"only FundsReceived status is allowed to call this function\");\n\n        t.status = TransactionStatus.AwaitingResolution;\n        \n        emit Dispute(t.Sender, t.Receiver, id, t.value);\n    }\n}      ",
  "sourcePath": "/home/romulo2305/redcriptopay/contracts/BNBescrow.sol",
  "compiler": {
    "name": "solc",
    "version": "0.8.4+commit.c7e474f2.Emscripten.clang"
  },
  "schemaVersion": "3.4.4",
  "updatedAt": "2022-01-14T20:07:19.169Z",
  "networkType": "ethereum",
  "devdoc": {
    "kind": "dev",
    "methods": {},
    "version": 1
  },
  "userdoc": {
    "kind": "user",
    "methods": {},
    "version": 1
  }
}