{
  "contractName": "redcriptopayTOKENS",
  "abi": [
    {
      "inputs": [],
      "stateMutability": "nonpayable",
      "type": "constructor"
    },
    {
      "anonymous": false,
      "inputs": [
        {
          "indexed": true,
          "internalType": "address",
          "name": "Sender",
          "type": "address"
        },
        {
          "indexed": true,
          "internalType": "address",
          "name": "Receiver",
          "type": "address"
        },
        {
          "indexed": true,
          "internalType": "uint256",
          "name": "id",
          "type": "uint256"
        },
        {
          "indexed": false,
          "internalType": "contract IERC20",
          "name": "token",
          "type": "address"
        },
        {
          "indexed": false,
          "internalType": "uint256",
          "name": "amount",
          "type": "uint256"
        },
        {
          "indexed": false,
          "internalType": "uint256",
          "name": "value",
          "type": "uint256"
        },
        {
          "indexed": false,
          "internalType": "enum redcriptopayTOKENS.TransactionStatus",
          "name": "status",
          "type": "uint8"
        }
      ],
      "name": "DepositCompleted",
      "type": "event"
    },
    {
      "anonymous": false,
      "inputs": [
        {
          "indexed": true,
          "internalType": "address",
          "name": "Sender",
          "type": "address"
        },
        {
          "indexed": true,
          "internalType": "address",
          "name": "Receiver",
          "type": "address"
        },
        {
          "indexed": true,
          "internalType": "uint256",
          "name": "id",
          "type": "uint256"
        },
        {
          "indexed": false,
          "internalType": "contract IERC20",
          "name": "token",
          "type": "address"
        },
        {
          "indexed": false,
          "internalType": "uint256",
          "name": "amount",
          "type": "uint256"
        },
        {
          "indexed": false,
          "internalType": "uint256",
          "name": "value",
          "type": "uint256"
        }
      ],
      "name": "DepositCreation",
      "type": "event"
    },
    {
      "anonymous": false,
      "inputs": [
        {
          "indexed": true,
          "internalType": "address",
          "name": "Sender",
          "type": "address"
        },
        {
          "indexed": true,
          "internalType": "address",
          "name": "Receiver",
          "type": "address"
        },
        {
          "indexed": true,
          "internalType": "uint256",
          "name": "id",
          "type": "uint256"
        },
        {
          "indexed": false,
          "internalType": "contract IERC20",
          "name": "token",
          "type": "address"
        },
        {
          "indexed": false,
          "internalType": "uint256",
          "name": "value",
          "type": "uint256"
        },
        {
          "indexed": false,
          "internalType": "uint256",
          "name": "amount",
          "type": "uint256"
        }
      ],
      "name": "Dispute",
      "type": "event"
    },
    {
      "anonymous": false,
      "inputs": [
        {
          "indexed": true,
          "internalType": "address",
          "name": "previousOwner",
          "type": "address"
        },
        {
          "indexed": true,
          "internalType": "address",
          "name": "newOwner",
          "type": "address"
        }
      ],
      "name": "OwnershipTransferred",
      "type": "event"
    },
    {
      "inputs": [],
      "name": "Judge",
      "outputs": [
        {
          "internalType": "address",
          "name": "",
          "type": "address"
        }
      ],
      "stateMutability": "view",
      "type": "function",
      "constant": true
    },
    {
      "inputs": [
        {
          "internalType": "address",
          "name": "",
          "type": "address"
        },
        {
          "internalType": "uint256",
          "name": "",
          "type": "uint256"
        }
      ],
      "name": "ReceiverLedger",
      "outputs": [
        {
          "internalType": "uint256",
          "name": "",
          "type": "uint256"
        }
      ],
      "stateMutability": "view",
      "type": "function",
      "constant": true
    },
    {
      "inputs": [
        {
          "internalType": "address",
          "name": "",
          "type": "address"
        },
        {
          "internalType": "uint256",
          "name": "",
          "type": "uint256"
        }
      ],
      "name": "SenderLedger",
      "outputs": [
        {
          "internalType": "uint256",
          "name": "",
          "type": "uint256"
        }
      ],
      "stateMutability": "view",
      "type": "function",
      "constant": true
    },
    {
      "inputs": [
        {
          "internalType": "uint256",
          "name": "",
          "type": "uint256"
        }
      ],
      "name": "Tokens",
      "outputs": [
        {
          "internalType": "contract IERC20",
          "name": "",
          "type": "address"
        }
      ],
      "stateMutability": "view",
      "type": "function",
      "constant": true
    },
    {
      "inputs": [
        {
          "internalType": "uint256",
          "name": "",
          "type": "uint256"
        }
      ],
      "name": "TransactionLedger",
      "outputs": [
        {
          "internalType": "address",
          "name": "Sender",
          "type": "address"
        },
        {
          "internalType": "address",
          "name": "Receiver",
          "type": "address"
        },
        {
          "internalType": "contract IERC20",
          "name": "token",
          "type": "address"
        },
        {
          "internalType": "uint256",
          "name": "amount",
          "type": "uint256"
        },
        {
          "internalType": "uint256",
          "name": "judgeFee",
          "type": "uint256"
        },
        {
          "internalType": "uint256",
          "name": "ownerFee",
          "type": "uint256"
        },
        {
          "internalType": "uint256",
          "name": "value",
          "type": "uint256"
        },
        {
          "internalType": "enum redcriptopayTOKENS.TransactionStatus",
          "name": "status",
          "type": "uint8"
        }
      ],
      "stateMutability": "view",
      "type": "function",
      "constant": true
    },
    {
      "inputs": [],
      "name": "owner",
      "outputs": [
        {
          "internalType": "address",
          "name": "",
          "type": "address"
        }
      ],
      "stateMutability": "view",
      "type": "function",
      "constant": true
    },
    {
      "inputs": [
        {
          "internalType": "address",
          "name": "newOwner",
          "type": "address"
        }
      ],
      "name": "transferOwnership",
      "outputs": [],
      "stateMutability": "nonpayable",
      "type": "function"
    },
    {
      "inputs": [
        {
          "internalType": "address",
          "name": "_judge",
          "type": "address"
        }
      ],
      "name": "setJudge",
      "outputs": [],
      "stateMutability": "nonpayable",
      "type": "function"
    },
    {
      "inputs": [
        {
          "internalType": "contract IERC20",
          "name": "tokencontractaddress",
          "type": "address"
        }
      ],
      "name": "addToken",
      "outputs": [],
      "stateMutability": "nonpayable",
      "type": "function"
    },
    {
      "inputs": [],
      "name": "getTokensLength",
      "outputs": [
        {
          "internalType": "uint256",
          "name": "",
          "type": "uint256"
        }
      ],
      "stateMutability": "view",
      "type": "function",
      "constant": true
    },
    {
      "inputs": [
        {
          "internalType": "uint256",
          "name": "tokenindex",
          "type": "uint256"
        }
      ],
      "name": "removeToken",
      "outputs": [],
      "stateMutability": "nonpayable",
      "type": "function"
    },
    {
      "inputs": [
        {
          "internalType": "address",
          "name": "_receiver",
          "type": "address"
        },
        {
          "internalType": "uint256",
          "name": "tokenindex",
          "type": "uint256"
        },
        {
          "internalType": "uint256",
          "name": "_amount",
          "type": "uint256"
        }
      ],
      "name": "createDeposit",
      "outputs": [],
      "stateMutability": "nonpayable",
      "type": "function"
    },
    {
      "inputs": [
        {
          "internalType": "address",
          "name": "user",
          "type": "address"
        }
      ],
      "name": "getSenderLedgerLength",
      "outputs": [
        {
          "internalType": "uint256",
          "name": "",
          "type": "uint256"
        }
      ],
      "stateMutability": "view",
      "type": "function",
      "constant": true
    },
    {
      "inputs": [
        {
          "internalType": "address",
          "name": "user",
          "type": "address"
        }
      ],
      "name": "getReceiverLedgerLength",
      "outputs": [
        {
          "internalType": "uint256",
          "name": "",
          "type": "uint256"
        }
      ],
      "stateMutability": "view",
      "type": "function",
      "constant": true
    },
    {
      "inputs": [
        {
          "internalType": "uint256",
          "name": "id",
          "type": "uint256"
        }
      ],
      "name": "releaseFunds",
      "outputs": [],
      "stateMutability": "nonpayable",
      "type": "function"
    },
    {
      "inputs": [
        {
          "internalType": "uint256",
          "name": "id",
          "type": "uint256"
        }
      ],
      "name": "refundSender",
      "outputs": [],
      "stateMutability": "nonpayable",
      "type": "function"
    },
    {
      "inputs": [
        {
          "internalType": "uint256",
          "name": "id",
          "type": "uint256"
        }
      ],
      "name": "raiseDispute",
      "outputs": [],
      "stateMutability": "nonpayable",
      "type": "function"
    }
  ],
  "bytecode": "0x608060405234801561001057600080fd5b5061003361002564010000000061004e810204565b640100000000610052810204565b6001805560028054600160a060020a031916331790556100a2565b3390565b60008054600160a060020a03838116600160a060020a0319831681178455604051919092169283917f8be0079c531659141344cd1fd0a4f28419497f9722a3daafe3b4186f6b6457e09190a35050565b611992806100b16000396000f3fe608060405234801561001057600080fd5b5060043610610128576000357c01000000000000000000000000000000000000000000000000000000009004806385893cb8116100bf578063b0c26ecf1161008e578063b0c26ecf14610268578063b157c5cd14610270578063cf85fb8714610283578063d48bfca7146102ac578063f2fde38b146102bf57600080fd5b806385893cb8146102045780638da5cb5b1461022f578063953c813314610242578063a5c1674e1461025557600080fd5b80633e87f9a1116100fb5780633e87f9a1146101b85780634d68282f146101cb5780636797763a146101de5780636ea17da8146101f157600080fd5b80630f8dce231461012d5780631bb9772e146101695780632f9c1df61461019057806336c5d724146101a5575b600080fd5b61015661013b366004611665565b600160a060020a031660009081526005602052604090205490565b6040519081526020015b60405180910390f35b61017c610177366004611700565b6102d2565b604051610160989796959493929190611759565b6101a361019e3660046116ac565b610339565b005b6101a36101b3366004611700565b61082f565b6101566101c6366004611681565b61096e565b6101a36101d9366004611700565b61099f565b6101566101ec366004611681565b610c50565b6101a36101ff366004611700565b610c6c565b60025461021790600160a060020a031681565b604051600160a060020a039091168152602001610160565b60005461021790600160a060020a031681565b610217610250366004611700565b610e5e565b6101a3610263366004611700565b610e88565b600354610156565b6101a361027e366004611665565b61109c565b610156610291366004611665565b600160a060020a031660009081526006602052604090205490565b6101a36102ba366004611665565b61111a565b6101a36102cd366004611665565b6111c8565b600481815481106102e257600080fd5b600091825260209091206008909102018054600182015460028301546003840154600485015460058601546006870154600790970154600160a060020a039687169850948616969390951694919390929060ff1688565b3233146103645760405160e560020a62461bcd02815260040161035b90611817565b60405180910390fd5b600081116103b75760405160e560020a62461bcd02815260206004820152601360248201527f616d6f756e742063616e206e6f74206265203000000000000000000000000000604482015260640161035b565b33600160a060020a03841614156104395760405160e560020a62461bcd02815260206004820152602760248201527f526563656976657220616e642073656e6465722063616e206e6f74206265207460448201527f68652073616d6500000000000000000000000000000000000000000000000000606482015260840161035b565b610480333083600386815481106104635760e060020a634e487b7102600052603260045260246000fd5b600091825260209091200154600160a060020a0316929190611280565b60006103e861049083600a6118cc565b61049a91906118a9565b905060006101f46104ac84600a6118cc565b6104b691906118a9565b90506000826104c583866118eb565b6104cf91906118eb565b9050600060405180610100016040528033600160a060020a0316815260200188600160a060020a03168152602001600388815481106105215760e060020a634e487b7102600052603260045260246000fd5b60009182526020918290200154600160a060020a03168252810187905260408101869052606081018590526080018561055a86896118eb565b61056491906118eb565b815260200160009052600480546001808201835560009290925282517f8a35acfbc15ff81a39ae7d344fd709f28e8600b4aa8c65c6b64bfe7fe36bd19b6008909202918201805473ffffffffffffffffffffffffffffffffffffffff19908116600160a060020a0393841617825560208601517f8a35acfbc15ff81a39ae7d344fd709f28e8600b4aa8c65c6b64bfe7fe36bd19c85018054831691851691909117905560408601517f8a35acfbc15ff81a39ae7d344fd709f28e8600b4aa8c65c6b64bfe7fe36bd19d8501805490921693169290921790915560608401517f8a35acfbc15ff81a39ae7d344fd709f28e8600b4aa8c65c6b64bfe7fe36bd19e83015560808401517f8a35acfbc15ff81a39ae7d344fd709f28e8600b4aa8c65c6b64bfe7fe36bd19f83015560a08401517f8a35acfbc15ff81a39ae7d344fd709f28e8600b4aa8c65c6b64bfe7fe36bd1a083015560c08401517f8a35acfbc15ff81a39ae7d344fd709f28e8600b4aa8c65c6b64bfe7fe36bd1a183015560e08401517f8a35acfbc15ff81a39ae7d344fd709f28e8600b4aa8c65c6b64bfe7fe36bd1a2909201805494955085949193909160ff19169083600381111561073d5760e060020a634e487b7102600052602160045260246000fd5b02179055505060045460009150610756906001906118eb565b33600081815260056020908152604080832080546001818101835591855283852001869055600160a060020a038e168085526006845291842080549182018155845291909220018390556003805493945084939192917fc3d18abac7d49ccf67bea7bac432270417e0182b31c37906e015f8f1d9f20b1e91908c9081106107f05760e060020a634e487b7102600052603260045260246000fd5b6000918252602091829020015460408051600160a060020a0390921682529181018c905290810188905260600160405180910390a45050505050505050565b600054600160a060020a0316331461085c5760405160e560020a62461bcd02815260040161035b90611874565b32331461087e5760405160e560020a62461bcd02815260040161035b90611817565b6003805461088e906001906118eb565b815481106108af5760e060020a634e487b7102600052603260045260246000fd5b60009182526020909120015460038054600160a060020a0390921691839081106108ec5760e060020a634e487b7102600052603260045260246000fd5b9060005260206000200160006101000a815481600160a060020a030219169083600160a060020a03160217905550600380548061093c5760e060020a634e487b7102600052603160045260246000fd5b6000828152602090208101600019908101805473ffffffffffffffffffffffffffffffffffffffff1916905501905550565b6005602052816000526040600020818154811061098a57600080fd5b90600052602060002001600091509150505481565b600260015414156109f55760405160e560020a62461bcd02815260206004820152601f60248201527f5265656e7472616e637947756172643a207265656e7472616e742063616c6c00604482015260640161035b565b6002600155323314610a1c5760405160e560020a62461bcd02815260040161035b90611817565b600060048281548110610a425760e060020a634e487b7102600052603260045260246000fd5b600091825260209091206008909102018054909150600160a060020a0316331480610a775750600254600160a060020a031633145b610aec5760405160e560020a62461bcd02815260206004820152602b60248201527f6f6e6c792073656e646572206f72206a756467652063616e2063616c6c20746860448201527f69732066756e6374696f6e000000000000000000000000000000000000000000606482015260840161035b565b6000600782015460ff166003811115610b185760e060020a634e487b7102600052602160045260246000fd5b1480610b4d57506003600782015460ff166003811115610b4b5760e060020a634e487b7102600052602160045260246000fd5b145b610b5657600080fd5b60078101805460ff1916600190811790915581015460068201546002830154610b8d92600160a060020a0391821692911690611337565b60028054600483015491830154610bb492600160a060020a03918216929190911690611337565b60005460058201546002830154610bd992600160a060020a0391821692911690611337565b6001810154815460028301546003840154600685015460078601546040518896600160a060020a03908116968116957f5e3481736957087ef5c38209646f44910af5d047d784b0c9f03426fe0c6df85c95610c409591909216939192909160ff16906117b0565b60405180910390a4505060018055565b6006602052816000526040600020818154811061098a57600080fd5b60026001541415610cc25760405160e560020a62461bcd02815260206004820152601f60248201527f5265656e7472616e637947756172643a207265656e7472616e742063616c6c00604482015260640161035b565b6002600155323314610ce95760405160e560020a62461bcd02815260040161035b90611817565b600060048281548110610d0f5760e060020a634e487b7102600052603260045260246000fd5b60009182526020909120600160089092020190810154909150600160a060020a0316331480610d485750600254600160a060020a031633145b610dbd5760405160e560020a62461bcd02815260206004820152602d60248201527f6f6e6c79207265636569766572206f72206a756467652063616e2063616c6c2060448201527f746869732066756e6374696f6e00000000000000000000000000000000000000606482015260840161035b565b6000600782015460ff166003811115610de95760e060020a634e487b7102600052602160045260246000fd5b1480610e1e57506003600782015460ff166003811115610e1c5760e060020a634e487b7102600052602160045260246000fd5b145b610e2757600080fd5b60078101805460ff191660029081179091558154600683015491830154610b8d92600160a060020a03918216929190911690611337565b60038181548110610e6e57600080fd5b600091825260209091200154600160a060020a0316905081565b323314610eaa5760405160e560020a62461bcd02815260040161035b90611817565b600060048281548110610ed05760e060020a634e487b7102600052603260045260246000fd5b600091825260209091206008909102018054909150600160a060020a0316331480610f0757506001810154600160a060020a031633145b610f7c5760405160e560020a62461bcd02815260206004820152602e60248201527f4f6e6c792073656e646572206f722072656365697665722063616e2063616c6c60448201527f20746869732066756e6374696f6e000000000000000000000000000000000000606482015260840161035b565b6000600782015460ff166003811115610fa85760e060020a634e487b7102600052602160045260246000fd5b1461101e5760405160e560020a62461bcd02815260206004820152603a60248201527f6f6e6c792046756e647352656365697665642073746174757320697320616c6c60448201527f6f77656420746f2063616c6c20746869732066756e6374696f6e000000000000606482015260840161035b565b60078101805460ff1916600390811790915560018201548254600284015492840154600685015460408051600160a060020a0396871681526020810193909352820152859392831692909116907f7f5b1e7d428b4724f896db4de11bf76b62f3a573be3b79b75d4ee0e19bba1f829060600160405180910390a45050565b600054600160a060020a031633146110c95760405160e560020a62461bcd02815260040161035b90611874565b3233146110eb5760405160e560020a62461bcd02815260040161035b90611817565b6002805473ffffffffffffffffffffffffffffffffffffffff1916600160a060020a0392909216919091179055565b600054600160a060020a031633146111475760405160e560020a62461bcd02815260040161035b90611874565b3233146111695760405160e560020a62461bcd02815260040161035b90611817565b600380546001810182556000919091527fc2575a0e9e593c00f959f8c92f12db2869c3395a3b0502d05e2516446f71f85b01805473ffffffffffffffffffffffffffffffffffffffff1916600160a060020a0392909216919091179055565b600054600160a060020a031633146111f55760405160e560020a62461bcd02815260040161035b90611874565b600160a060020a0381166112745760405160e560020a62461bcd02815260206004820152602660248201527f4f776e61626c653a206e6577206f776e657220697320746865207a65726f206160448201527f6464726573730000000000000000000000000000000000000000000000000000606482015260840161035b565b61127d81611385565b50565b604051600160a060020a03808516602483015283166044820152606481018290526113319085907f23b872dd00000000000000000000000000000000000000000000000000000000906084015b60408051601f198184030181529190526020810180517bffffffffffffffffffffffffffffffffffffffffffffffffffffffff167fffffffff00000000000000000000000000000000000000000000000000000000909316929092179091526113e2565b50505050565b604051600160a060020a0383166024820152604481018290526113809084907fa9059cbb00000000000000000000000000000000000000000000000000000000906064016112cd565b505050565b60008054600160a060020a0383811673ffffffffffffffffffffffffffffffffffffffff19831681178455604051919092169283917f8be0079c531659141344cd1fd0a4f28419497f9722a3daafe3b4186f6b6457e09190a35050565b6000611437826040518060400160405280602081526020017f5361666545524332303a206c6f772d6c6576656c2063616c6c206661696c656481525085600160a060020a03166114ca9092919063ffffffff16565b805190915015611380578080602001905181019061145591906116e0565b6113805760405160e560020a62461bcd02815260206004820152602a60248201527f5361666545524332303a204552433230206f7065726174696f6e20646964206e60448201527f6f74207375636365656400000000000000000000000000000000000000000000606482015260840161035b565b60606114d984846000856114e3565b90505b9392505050565b6060303183111561155f5760405160e560020a62461bcd02815260206004820152602660248201527f416464726573733a20696e73756666696369656e742062616c616e636520666f60448201527f722063616c6c0000000000000000000000000000000000000000000000000000606482015260840161035b565b843b6115b05760405160e560020a62461bcd02815260206004820152601d60248201527f416464726573733a2063616c6c20746f206e6f6e2d636f6e7472616374000000604482015260640161035b565b60008086600160a060020a031685876040516115cc919061173d565b60006040518083038185875af1925050503d8060008114611609576040519150601f19603f3d011682016040523d82523d6000602084013e61160e565b606091505b509150915061161e828286611629565b979650505050505050565b606083156116385750816114dc565b8251156116485782518084602001fd5b8160405160e560020a62461bcd02815260040161035b91906117e4565b600060208284031215611676578081fd5b81356114dc81611947565b60008060408385031215611693578081fd5b823561169e81611947565b946020939093013593505050565b6000806000606084860312156116c0578081fd5b83356116cb81611947565b95602085013595506040909401359392505050565b6000602082840312156116f1578081fd5b815180151581146114dc578182fd5b600060208284031215611711578081fd5b5035919050565b600481106117395760e060020a634e487b7102600052602160045260246000fd5b9052565b6000825161174f818460208701611902565b9190910192915050565b600160a060020a038981168252888116602083015287166040820152606081018690526080810185905260a0810184905260c0810183905261010081016117a360e0830184611718565b9998505050505050505050565b600160a060020a03851681526020810184905260408101839052608081016117db6060830184611718565b95945050505050565b6020815260008251806020840152611803816040850160208701611902565b601f01601f19169190910160400192915050565b60208082526024908201527f436f6e7472616374732063616e206e6f742063616c6c20746869732066756e6360408201527f74696f6e00000000000000000000000000000000000000000000000000000000606082015260800190565b6020808252818101527f4f776e61626c653a2063616c6c6572206973206e6f7420746865206f776e6572604082015260600190565b6000826118c75760e060020a634e487b710281526012600452602481fd5b500490565b60008160001904831182151516156118e6576118e661192e565b500290565b6000828210156118fd576118fd61192e565b500390565b60005b8381101561191d578181015183820152602001611905565b838111156113315750506000910152565b60e060020a634e487b7102600052601160045260246000fd5b600160a060020a038116811461127d57600080fdfea2646970667358221220de1af1b7949a1359bf1d9cd4e875e907b07ff9711f182a83054be47fb22852f564736f6c63430008040033",
  "immutableReferences": {},
  "source": "pragma solidity ^0.8.4;\n\n//redcriptopay\n\nimport \"./Ownable.sol\";\nimport \"@openzeppelin/contracts/token/ERC20/IERC20.sol\";\nimport \"@openzeppelin/contracts/token/ERC20/utils/SafeERC20.sol\";\nimport \"@openzeppelin/contracts/security/ReentrancyGuard.sol\";\n\ncontract redcriptopayTOKENS is Ownable, ReentrancyGuard {\n    \n    using SafeERC20 for IERC20;\n\n    enum TransactionStatus { FundsReceived, FundsReleased, Refunded, AwaitingResolution }\n\n    event DepositCreation(address indexed Sender, address indexed Receiver, uint indexed id, IERC20 token, uint amount, uint value);\n    event DepositCompleted(address indexed Sender, address indexed Receiver, uint indexed id, IERC20 token, uint amount, uint value, TransactionStatus status);\n    event Dispute(address indexed Sender, address indexed Receiver, uint indexed id, IERC20 token, uint value, uint amount);\n    \n    address public Judge;\n    IERC20[] public Tokens;\n    \n    constructor () {\n     Judge = msg.sender;    \n    }\n    \n    struct Transaction{\n        address Sender;\n        address Receiver;\n        IERC20 token;\n        uint amount;\n        uint judgeFee;\n        uint ownerFee;\n        uint value;\n        TransactionStatus status;\n    }\n    \n    Transaction[] public TransactionLedger;\n\n    mapping(address => uint[]) public SenderLedger;\n    mapping(address => uint[]) public ReceiverLedger;\n    \n    \n    modifier onlyEOA() {\n    require(tx.origin == msg.sender, \"Contracts can not call this function\");\n    _;\n    }\n    \n    function setJudge(address _judge) external onlyOwner onlyEOA {\n        Judge = _judge;\n    }\n    \n    function addToken(IERC20 tokencontractaddress) external onlyOwner onlyEOA {\n        Tokens.push(tokencontractaddress);\n    }\n    \n    function getTokensLength() external view returns (uint) {\n       return Tokens.length;\n    }\n    \n    function removeToken(uint tokenindex) external onlyOwner onlyEOA {\n        Tokens[tokenindex] = Tokens[Tokens.length - 1];\n        Tokens.pop();\n    }\n    \n    function createDeposit(address _receiver, uint tokenindex, uint _amount) external onlyEOA {\n        require(_amount > 0, 'amount can not be 0');\n        require(msg.sender != _receiver, \"Receiver and sender can not be the same\");\n        \n        Tokens[tokenindex].safeTransferFrom(msg.sender, address(this), _amount);\n\n        uint judgeFee = (_amount * 10) / 1000;\n        uint ownerFee = (_amount * 10) / 500;\n        uint value = _amount - ownerFee - judgeFee;\n        \n        Transaction memory NewTransaction = Transaction({ \n            Sender: msg.sender, \n            Receiver: _receiver, \n            token: Tokens[tokenindex],\n            amount: _amount,\n            judgeFee: judgeFee,\n            ownerFee: ownerFee,\n            value: _amount - ownerFee - judgeFee,\n            status: TransactionStatus.FundsReceived\n        });\n        \n        TransactionLedger.push(NewTransaction);\n        uint id = TransactionLedger.length -1;\n        SenderLedger[msg.sender].push(id);\n        ReceiverLedger[_receiver].push(id);\n \n        \n         emit DepositCreation(msg.sender, _receiver, id, Tokens[tokenindex], _amount, value);\n    }\n    \n    function getSenderLedgerLength(address user) public view returns (uint){\n        return (SenderLedger[user].length);\n    }\n    \n    function getReceiverLedgerLength(address user) public view returns (uint){\n        return (ReceiverLedger[user].length);\n    }\n    \n    function releaseFunds(uint id) external nonReentrant onlyEOA {\n        Transaction storage t = TransactionLedger[id];\n        require(t.Sender == msg.sender || Judge == msg.sender, \"only sender or judge can call this function\");\n        require(t.status == TransactionStatus.FundsReceived || t.status == TransactionStatus.AwaitingResolution);\n        \n        t.status = TransactionStatus.FundsReleased;\n       \n        t.token.safeTransfer(t.Receiver,t.value);\n        t.token.safeTransfer(Judge, t.judgeFee);\n        t.token.safeTransfer(owner, t.ownerFee);\n        \n        emit DepositCompleted(t.Sender, t.Receiver, id, t.token, t.amount, t.value, t.status);\n    }\n\n    function refundSender(uint id) external nonReentrant onlyEOA{\n        Transaction storage t = TransactionLedger[id];\n        require(t.Receiver == msg.sender || Judge == msg.sender, \"only receiver or judge can call this function\");\n        require(t.status == TransactionStatus.FundsReceived || t.status == TransactionStatus.AwaitingResolution);\n\n        t.status = TransactionStatus.Refunded;\n        \n        t.token.safeTransfer(t.Sender, t.value);\n        t.token.safeTransfer(Judge, t.judgeFee);\n        t.token.safeTransfer(owner, t.ownerFee);\n        \n        emit DepositCompleted(t.Sender, t.Receiver, id, t.token, t.amount, t.value, t.status);\n    }\n\n    function raiseDispute(uint id) external onlyEOA {\n        Transaction storage t = TransactionLedger[id];\n        require(t.Sender == msg.sender || t.Receiver == msg.sender, \"Only sender or receiver can call this function\");\n        require(t.status == TransactionStatus.FundsReceived, \"only FundsReceived status is allowed to call this function\");\n\n        t.status = TransactionStatus.AwaitingResolution;\n        \n        emit Dispute(t.Sender, t.Receiver, id, t.token, t.amount, t.value);\n    }\n}",
  "sourcePath": "/home/romulo2305/redcriptopay/contracts/TOKENSescrow.sol",
  "compiler": {
    "name": "solc",
    "version": "0.8.4+commit.c7e474f2.Emscripten.clang"
  },
  "schemaVersion": "3.4.3",
  "updatedAt": "2021-12-09T22:39:31.898Z",
  "networkType": "ethereum",
  "devdoc": {
    "kind": "dev",
    "methods": {},
    "version": 1
  },
  "userdoc": {
    "kind": "user",
    "methods": {},
    "version": 1
  }
}