{
  "contractName": "redcriptopaycontactINFO",
  "abi": [
    {
      "anonymous": false,
      "inputs": [
        {
          "indexed": false,
          "internalType": "address",
          "name": "user",
          "type": "address"
        },
        {
          "indexed": false,
          "internalType": "string",
          "name": "info",
          "type": "string"
        }
      ],
      "name": "userEvent",
      "type": "event"
    },
    {
      "inputs": [
        {
          "internalType": "string",
          "name": "info",
          "type": "string"
        }
      ],
      "name": "Setusercontactinfo",
      "outputs": [],
      "stateMutability": "nonpayable",
      "type": "function"
    },
    {
      "inputs": [
        {
          "internalType": "address",
          "name": "user",
          "type": "address"
        }
      ],
      "name": "getusercontactinfo",
      "outputs": [
        {
          "internalType": "string",
          "name": "",
          "type": "string"
        }
      ],
      "stateMutability": "view",
      "type": "function",
      "constant": true
    }
  ],
  "bytecode": "0x608060405234801561001057600080fd5b50610507806100206000396000f3fe608060405234801561001057600080fd5b5060043610610052577c010000000000000000000000000000000000000000000000000000000060003504632143747c81146100575780636946f5251461006c575b600080fd5b61006a61006536600461030f565b610095565b005b61007f61007a3660046102d4565b610182565b60405161008c919061043b565b60405180910390f35b323314610127576040517f08c379a0000000000000000000000000000000000000000000000000000000008152602060048201526024808201527f436f6e7472616374732063616e206e6f742063616c6c20746869732066756e6360448201527f74696f6e00000000000000000000000000000000000000000000000000000000606482015260840160405180910390fd5b3360009081526020818152604090912082516101459284019061023b565b507f7006733b2a17b61c999ce007c944fdaec934f5f1abb00207eb359df36b8c55533382604051610177929190610404565b60405180910390a150565b73ffffffffffffffffffffffffffffffffffffffff811660009081526020819052604090208054606091906101b69061044e565b80601f01602080910402602001604051908101604052809291908181526020018280546101e29061044e565b801561022f5780601f106102045761010080835404028352916020019161022f565b820191906000526020600020905b81548152906001019060200180831161021257829003601f168201915b50505050509050919050565b8280546102479061044e565b90600052602060002090601f01602090048101928261026957600085556102af565b82601f1061028257805160ff19168380011785556102af565b828001600101855582156102af579182015b828111156102af578251825591602001919060010190610294565b506102bb9291506102bf565b5090565b5b808211156102bb57600081556001016102c0565b6000602082840312156102e5578081fd5b813573ffffffffffffffffffffffffffffffffffffffff81168114610308578182fd5b9392505050565b600060208284031215610320578081fd5b813567ffffffffffffffff80821115610337578283fd5b818401915084601f83011261034a578283fd5b81358181111561035c5761035c6104a2565b604051601f8201601f19908116603f01168101908382118183101715610384576103846104a2565b8160405282815287602084870101111561039c578586fd5b826020860160208301379182016020019490945295945050505050565b60008151808452815b818110156103de576020818501810151868301820152016103c2565b818111156103ef5782602083870101525b50601f01601f19169290920160200192915050565b73ffffffffffffffffffffffffffffffffffffffff8316815260406020820152600061043360408301846103b9565b949350505050565b60208152600061030860208301846103b9565b60028104600182168061046257607f821691505b6020821081141561049c577f4e487b7100000000000000000000000000000000000000000000000000000000600052602260045260246000fd5b50919050565b7f4e487b7100000000000000000000000000000000000000000000000000000000600052604160045260246000fdfea2646970667358221220d26b992f06f20a47f3c47bd38de335892a5e8721b6d0918c1e684dc852ceddfb64736f6c63430008040033",
  "immutableReferences": {},
  "source": "pragma solidity ^0.8.4;\n\n//recriptopay\n\ncontract redcriptopaycontactINFO { \n    \n mapping (address => string) usercontactinfo; \n \n  event userEvent(address user, string info);\n \n function Setusercontactinfo (string memory info) external {\n     require(tx.origin == msg.sender, \"Contracts can not call this function\");\n     usercontactinfo [msg.sender] = info;\n     \n     emit userEvent(msg.sender, info);\n }\n function getusercontactinfo (address user) external view returns (string memory) {\n     return usercontactinfo [user];\n }\n}",
  "sourcePath": "/home/romulo2305/redcriptopay/contracts/contactINFO.sol",
  "compiler": {
    "name": "solc",
    "version": "0.8.4+commit.c7e474f2.Emscripten.clang"
  },
  "schemaVersion": "3.4.4",
  "updatedAt": "2021-12-28T12:37:04.813Z",
  "networkType": "ethereum",
  "devdoc": {
    "kind": "dev",
    "methods": {},
    "version": 1
  },
  "userdoc": {
    "kind": "user",
    "methods": {},
    "version": 1
  }
}